{
  "contractName": "FundRaising",
  "abi": [
    {
      "anonymous": false,
      "inputs": [
        {
          "indexed": false,
          "internalType": "address",
          "name": "contractAddress",
          "type": "address"
        },
        {
          "indexed": false,
          "internalType": "address",
          "name": "projectStarter",
          "type": "address"
        },
        {
          "indexed": false,
          "internalType": "string",
          "name": "projectTitle",
          "type": "string"
        },
        {
          "indexed": false,
          "internalType": "string",
          "name": "projectDescription",
          "type": "string"
        },
        {
          "indexed": false,
          "internalType": "string",
          "name": "projectImgUrl",
          "type": "string"
        },
        {
          "indexed": false,
          "internalType": "uint256",
          "name": "durationInDays",
          "type": "uint256"
        },
        {
          "indexed": false,
          "internalType": "uint256",
          "name": "amountToRaise",
          "type": "uint256"
        },
        {
          "indexed": false,
          "internalType": "uint256",
          "name": "minimumContribution",
          "type": "uint256"
        }
      ],
      "name": "ProjectStarted",
      "type": "event"
    },
    {
      "inputs": [
        {
          "internalType": "string",
          "name": "title",
          "type": "string"
        },
        {
          "internalType": "string",
          "name": "description",
          "type": "string"
        },
        {
          "internalType": "string",
          "name": "imgUrl",
          "type": "string"
        },
        {
          "internalType": "uint256",
          "name": "durationInDays",
          "type": "uint256"
        },
        {
          "internalType": "uint256",
          "name": "amountToRaise",
          "type": "uint256"
        },
        {
          "internalType": "uint256",
          "name": "minimumContribution",
          "type": "uint256"
        }
      ],
      "name": "startNewProject",
      "outputs": [],
      "stateMutability": "nonpayable",
      "type": "function"
    },
    {
      "inputs": [],
      "name": "returnAllProjects",
      "outputs": [
        {
          "internalType": "contract Project[]",
          "name": "",
          "type": "address[]"
        }
      ],
      "stateMutability": "view",
      "type": "function",
      "constant": true
    }
  ],
  "bytecode": "0x608060405234801561001057600080fd5b50612b77806100206000396000f3fe60806040523480156200001157600080fd5b50600436106200003a5760003560e01c806378a9f77e146200003f57806385b6e28e146200005f575b600080fd5b6200005d6004803603810190620000579190620003a6565b62000081565b005b62000069620001bd565b60405162000078919062000687565b60405180910390f35b6000620000af6200009f62015180866200024d90919063ffffffff16565b42620002d190919063ffffffff16565b905060008184338d8d8d8d8d8d8b604051620000cb9062000334565b620000e09a99989796959493929190620006ef565b604051809103906000f080158015620000fd573d6000803e3d6000fd5b5090506000819080600181540180825580915050600190039060005260206000200160009091909190916101000a81548173ffffffffffffffffffffffffffffffffffffffff021916908373ffffffffffffffffffffffffffffffffffffffff1602179055507f8beb95318d383a65920f01c67051a10e13d9d22dc36b0b14089e37dfe41ae2f381338d8d8d8d8d8d8b8b8e604051620001a89b9a99989796959493929190620005de565b60405180910390a15050505050505050505050565b606060008054806020026020016040519081016040528092919081815260200182805480156200024357602002820191906000526020600020905b8160009054906101000a900473ffffffffffffffffffffffffffffffffffffffff1673ffffffffffffffffffffffffffffffffffffffff1681526020019060010190808311620001f8575b5050505050905090565b600080831415620002625760009050620002cb565b6000828462000272919062000866565b90508284826200028391906200082e565b14620002c6576040517f08c379a0000000000000000000000000000000000000000000000000000000008152600401620002bd90620006cd565b60405180910390fd5b809150505b92915050565b6000808284620002e29190620007d1565b9050838110156200032a576040517f08c379a00000000000000000000000000000000000000000000000000000000081526004016200032190620006ab565b60405180910390fd5b8091505092915050565b6120f08062000a5283390190565b60008083601f8401126200035557600080fd5b8235905067ffffffffffffffff8111156200036f57600080fd5b6020830191508360018202830111156200038857600080fd5b9250929050565b600081359050620003a08162000a37565b92915050565b600080600080600080600080600060c08a8c031215620003c557600080fd5b60008a013567ffffffffffffffff811115620003e057600080fd5b620003ee8c828d0162000342565b995099505060208a013567ffffffffffffffff8111156200040e57600080fd5b6200041c8c828d0162000342565b975097505060408a013567ffffffffffffffff8111156200043c57600080fd5b6200044a8c828d0162000342565b955095505060606200045f8c828d016200038f565b9350506080620004728c828d016200038f565b92505060a0620004858c828d016200038f565b9150509295985092959850929598565b6000620004a383836200053b565b60208301905092915050565b620004ba81620008db565b82525050565b620004cb81620008c7565b82525050565b6000620004de8262000797565b620004ea8185620007af565b9350620004f78362000787565b8060005b838110156200052e57815162000512888262000495565b97506200051f83620007a2565b925050600181019050620004fb565b5085935050505092915050565b620005468162000919565b82525050565b60006200055a8385620007c0565b93506200056983858462000941565b6200057483620009ae565b840190509392505050565b60006200058e601b83620007c0565b91506200059b82620009bf565b602082019050919050565b6000620005b5602183620007c0565b9150620005c282620009e8565b604082019050919050565b620005d8816200090f565b82525050565b600061010082019050620005f6600083018e620004c0565b62000605602083018d620004c0565b81810360408301526200061a818b8d6200054c565b905081810360608301526200063181898b6200054c565b90508181036080830152620006488187896200054c565b90506200065960a0830186620005cd565b6200066860c0830185620005cd565b6200067760e0830184620005cd565b9c9b505050505050505050505050565b60006020820190508181036000830152620006a38184620004d1565b905092915050565b60006020820190508181036000830152620006c6816200057f565b9050919050565b60006020820190508181036000830152620006e881620005a6565b9050919050565b600060e08201905062000706600083018d620005cd565b62000715602083018c620005cd565b62000724604083018b620004af565b81810360608301526200073981898b6200054c565b90508181036080830152620007508187896200054c565b905081810360a0830152620007678185876200054c565b90506200077860c0830184620005cd565b9b9a5050505050505050505050565b6000819050602082019050919050565b600081519050919050565b6000602082019050919050565b600082825260208201905092915050565b600082825260208201905092915050565b6000620007de826200090f565b9150620007eb836200090f565b9250827fffffffffffffffffffffffffffffffffffffffffffffffffffffffffffffffff0382111562000823576200082262000950565b5b828201905092915050565b60006200083b826200090f565b915062000848836200090f565b9250826200085b576200085a6200097f565b5b828204905092915050565b600062000873826200090f565b915062000880836200090f565b9250817fffffffffffffffffffffffffffffffffffffffffffffffffffffffffffffffff0483118215151615620008bc57620008bb62000950565b5b828202905092915050565b6000620008d482620008ef565b9050919050565b6000620008e882620008ef565b9050919050565b600073ffffffffffffffffffffffffffffffffffffffff82169050919050565b6000819050919050565b600062000926826200092d565b9050919050565b60006200093a82620008ef565b9050919050565b82818337600083830152505050565b7f4e487b7100000000000000000000000000000000000000000000000000000000600052601160045260246000fd5b7f4e487b7100000000000000000000000000000000000000000000000000000000600052601260045260246000fd5b6000601f19601f8301169050919050565b7f536166654d6174683a206164646974696f6e206f766572666c6f770000000000600082015250565b7f536166654d6174683a206d756c7469706c69636174696f6e206f766572666c6f60008201527f7700000000000000000000000000000000000000000000000000000000000000602082015250565b62000a42816200090f565b811462000a4e57600080fd5b5056fe608060405260006003556000600960006101000a81548160ff0219169083600281111562000056577f4e487b7100000000000000000000000000000000000000000000000000000000600052602160045260246000fd5b02179055503480156200006857600080fd5b50604051620020f0380380620020f083398181016040528101906200008e919062000298565b846000806101000a81548173ffffffffffffffffffffffffffffffffffffffff021916908373ffffffffffffffffffffffffffffffffffffffff1602179055508360069080519060200190620000e692919062000148565b508260079080519060200190620000ff92919062000148565b5081600890805190602001906200011892919062000148565b5085600181905550806005819055508643620001359190620003ef565b60028190555050505050505050620005fe565b8280546200015690620004c0565b90600052602060002090601f0160209004810192826200017a5760008555620001c6565b82601f106200019557805160ff1916838001178555620001c6565b82800160010185558215620001c6579182015b82811115620001c5578251825591602001919060010190620001a8565b5b509050620001d59190620001d9565b5090565b5b80821115620001f4576000816000905550600101620001da565b5090565b60006200020f6200020984620003b9565b62000390565b9050828152602081018484840111156200022857600080fd5b620002358482856200048a565b509392505050565b6000815190506200024e81620005ca565b92915050565b600082601f8301126200026657600080fd5b815162000278848260208601620001f8565b91505092915050565b6000815190506200029281620005e4565b92915050565b600080600080600080600060e0888a031215620002b457600080fd5b6000620002c48a828b0162000281565b9750506020620002d78a828b0162000281565b9650506040620002ea8a828b016200023d565b955050606088015167ffffffffffffffff8111156200030857600080fd5b620003168a828b0162000254565b945050608088015167ffffffffffffffff8111156200033457600080fd5b620003428a828b0162000254565b93505060a088015167ffffffffffffffff8111156200036057600080fd5b6200036e8a828b0162000254565b92505060c0620003818a828b0162000281565b91505092959891949750929550565b60006200039c620003af565b9050620003aa8282620004f6565b919050565b6000604051905090565b600067ffffffffffffffff821115620003d757620003d66200058a565b5b620003e282620005b9565b9050602081019050919050565b6000620003fc8262000480565b9150620004098362000480565b9250827fffffffffffffffffffffffffffffffffffffffffffffffffffffffffffffffff038211156200044157620004406200052c565b5b828201905092915050565b6000620004598262000460565b9050919050565b600073ffffffffffffffffffffffffffffffffffffffff82169050919050565b6000819050919050565b60005b83811015620004aa5780820151818401526020810190506200048d565b83811115620004ba576000848401525b50505050565b60006002820490506001821680620004d957607f821691505b60208210811415620004f057620004ef6200055b565b5b50919050565b6200050182620005b9565b810181811067ffffffffffffffff821117156200052357620005226200058a565b5b80604052505050565b7f4e487b7100000000000000000000000000000000000000000000000000000000600052601160045260246000fd5b7f4e487b7100000000000000000000000000000000000000000000000000000000600052602260045260246000fd5b7f4e487b7100000000000000000000000000000000000000000000000000000000600052604160045260246000fd5b6000601f19601f8301169050919050565b620005d5816200044c565b8114620005e157600080fd5b50565b620005ef8162000480565b8114620005fb57600080fd5b50565b611ae2806200060e6000396000f3fe60806040526004361061012a5760003560e01c806386f32586116100ab578063d01ca1921161006f578063d01ca192146103b2578063d68387c7146103db578063d7bb99ba14610406578063da333ca614610410578063f251fc8c14610439578063fbbf93a0146104645761012a565b806386f3258614610303578063937e09b11461031a578063b2d5ae4414610345578063c19d93fb1461035c578063c59ee1dc146103875761012a565b80634a79d50c116100f25780634a79d50c146102185780634c4cea5a14610243578063700127ef1461026e5780637284e4161461029757806381d12c58146102c25761012a565b806302d05d3f1461012f57806312065fe01461015a57806329dcb0cf1461018557806340193883146101b057806342e94c90146101db575b600080fd5b34801561013b57600080fd5b50610144610495565b6040516101519190611520565b60405180910390f35b34801561016657600080fd5b5061016f6104b9565b60405161017c91906116ad565b60405180910390f35b34801561019157600080fd5b5061019a6104c1565b6040516101a791906116ad565b60405180910390f35b3480156101bc57600080fd5b506101c56104c7565b6040516101d291906116ad565b60405180910390f35b3480156101e757600080fd5b5061020260048036038101906101fd91906113c0565b6104cd565b60405161020f91906116ad565b60405180910390f35b34801561022457600080fd5b5061022d6104e5565b60405161023a9190611611565b60405180910390f35b34801561024f57600080fd5b50610258610573565b60405161026591906116ad565b60405180910390f35b34801561027a57600080fd5b5061029560048036038101906102909190611450565b610579565b005b3480156102a357600080fd5b506102ac6106e4565b6040516102b99190611611565b60405180910390f35b3480156102ce57600080fd5b506102e960048036038101906102e49190611450565b610772565b6040516102fa959493929190611633565b60405180910390f35b34801561030f57600080fd5b5061031861086d565b005b34801561032657600080fd5b5061032f610934565b60405161033c91906116ad565b60405180910390f35b34801561035157600080fd5b5061035a61093a565b005b34801561036857600080fd5b50610371610a77565b60405161037e91906115f6565b60405180910390f35b34801561039357600080fd5b5061039c610a8a565b6040516103a991906116ad565b60405180910390f35b3480156103be57600080fd5b506103d960048036038101906103d491906113e9565b610a90565b005b3480156103e757600080fd5b506103f0610c0a565b6040516103fd9190611611565b60405180910390f35b61040e610c98565b005b34801561041c57600080fd5b5061043760048036038101906104329190611450565b610e58565b005b34801561044557600080fd5b5061044e611023565b60405161045b91906116ad565b60405180910390f35b34801561047057600080fd5b50610479611029565b60405161048c979695949392919061153b565b60405180910390f35b60008054906101000a900473ffffffffffffffffffffffffffffffffffffffff1681565b600047905090565b60025481565b60015481565b600a6020528060005260406000206000915090505481565b600680546104f290611882565b80601f016020809104026020016040519081016040528092919081815260200182805461051e90611882565b801561056b5780601f106105405761010080835404028352916020019161056b565b820191906000526020600020905b81548152906001019060200180831161054e57829003601f168201915b505050505081565b60045481565b6000600d82815481106105b5577f4e487b7100000000000000000000000000000000000000000000000000000000600052603260045260246000fd5b906000526020600020906004020190506000600a60003373ffffffffffffffffffffffffffffffffffffffff1673ffffffffffffffffffffffffffffffffffffffff168152602001908152602001600020541161061157600080fd5b60001515600c60003373ffffffffffffffffffffffffffffffffffffffff1673ffffffffffffffffffffffffffffffffffffffff16815260200190815260200160002060009054906101000a900460ff1615151461066e57600080fd5b6001600c60003373ffffffffffffffffffffffffffffffffffffffff1673ffffffffffffffffffffffffffffffffffffffff16815260200190815260200160002060006101000a81548160ff0219169083151502179055508060030160008154809291906106db906118e5565b91905055505050565b600780546106f190611882565b80601f016020809104026020016040519081016040528092919081815260200182805461071d90611882565b801561076a5780601f1061073f5761010080835404028352916020019161076a565b820191906000526020600020905b81548152906001019060200180831161074d57829003601f168201915b505050505081565b600d818154811061078257600080fd5b90600052602060002090600402016000915090508060000180546107a590611882565b80601f01602080910402602001604051908101604052809291908181526020018280546107d190611882565b801561081e5780601f106107f35761010080835404028352916020019161081e565b820191906000526020600020905b81548152906001019060200180831161080157829003601f168201915b5050505050908060010154908060020160009054906101000a900473ffffffffffffffffffffffffffffffffffffffff16908060020160149054906101000a900460ff16908060030154905085565b600154600354106108ce576002600960006101000a81548160ff021916908360028111156108c4577f4e487b7100000000000000000000000000000000000000000000000000000000600052602160045260246000fd5b021790555061092b565b60025443111561092a576001600960006101000a81548160ff02191690836002811115610924577f4e487b7100000000000000000000000000000000000000000000000000000000600052602160045260246000fd5b02179055505b5b43600481905550565b60055481565b600254431161094857600080fd5b6001546003541061095857600080fd5b6000600a60003373ffffffffffffffffffffffffffffffffffffffff1673ffffffffffffffffffffffffffffffffffffffff16815260200190815260200160002054116109a457600080fd5b60003390508073ffffffffffffffffffffffffffffffffffffffff166108fc600a60003373ffffffffffffffffffffffffffffffffffffffff1673ffffffffffffffffffffffffffffffffffffffff168152602001908152602001600020549081150290604051600060405180830381858888f19350505050158015610a2e573d6000803e3d6000fd5b506000600a60003373ffffffffffffffffffffffffffffffffffffffff1673ffffffffffffffffffffffffffffffffffffffff1681526020019081526020016000208190555050565b600960009054906101000a900460ff1681565b60035481565b60008054906101000a900473ffffffffffffffffffffffffffffffffffffffff1673ffffffffffffffffffffffffffffffffffffffff163373ffffffffffffffffffffffffffffffffffffffff1614610ae857600080fd5b6001546003541015610af957600080fd5b60006040518060a001604052808581526020018381526020018473ffffffffffffffffffffffffffffffffffffffff16815260200160001515815260200160008152509050600d8190806001815401808255809150506001900390600052602060002090600402016000909190919091506000820151816000019080519060200190610b86929190611276565b506020820151816001015560408201518160020160006101000a81548173ffffffffffffffffffffffffffffffffffffffff021916908373ffffffffffffffffffffffffffffffffffffffff16021790555060608201518160020160146101000a81548160ff02191690831515021790555060808201518160030155505050505050565b60088054610c1790611882565b80601f0160208091040260200160405190810160405280929190818152602001828054610c4390611882565b8015610c905780601f10610c6557610100808354040283529160200191610c90565b820191906000526020600020905b815481529060010190602001808311610c7357829003601f168201915b505050505081565b6000806002811115610cd3577f4e487b7100000000000000000000000000000000000000000000000000000000600052602160045260246000fd5b600960009054906101000a900460ff166002811115610d1b577f4e487b7100000000000000000000000000000000000000000000000000000000600052602160045260246000fd5b14610d2557600080fd5b6005543411610d3357600080fd5b6002544310610d4157600080fd5b6000600a60003373ffffffffffffffffffffffffffffffffffffffff1673ffffffffffffffffffffffffffffffffffffffff168152602001908152602001600020541415610da157610d9f6001600b5461121890919063ffffffff16565b505b34600a60003373ffffffffffffffffffffffffffffffffffffffff1673ffffffffffffffffffffffffffffffffffffffff1681526020019081526020016000206000828254610df0919061173a565b925050819055503460036000828254610e09919061173a565b925050819055507f5cdc4ab8d637538ead6cc1904d4160343656c8c82bd266635cfd31ac008fffe03334600354604051610e45939291906115bf565b60405180910390a1610e5561086d565b50565b60008054906101000a900473ffffffffffffffffffffffffffffffffffffffff1673ffffffffffffffffffffffffffffffffffffffff163373ffffffffffffffffffffffffffffffffffffffff1614610eb057600080fd5b6000600d8281548110610eec577f4e487b7100000000000000000000000000000000000000000000000000000000600052603260045260246000fd5b90600052602060002090600402019050600015158160020160149054906101000a900460ff16151514610f1e57600080fd5b6002600b54610f2d9190611790565b816003015411610f3c57600080fd5b8060020160009054906101000a900473ffffffffffffffffffffffffffffffffffffffff1673ffffffffffffffffffffffffffffffffffffffff166108fc82600101549081150290604051600060405180830381858888f19350505050158015610faa573d6000803e3d6000fd5b507f2f256415efc8561af8db667cb242964b19be7380f379ccdafaa0e54a6f6b706960008054906101000a900473ffffffffffffffffffffffffffffffffffffffff16604051610ffa9190611520565b60405180910390a160018160020160146101000a81548160ff0219169083151502179055505050565b600b5481565b6000606080606060008060008060009054906101000a900473ffffffffffffffffffffffffffffffffffffffff1696506006805461106690611882565b80601f016020809104026020016040519081016040528092919081815260200182805461109290611882565b80156110df5780601f106110b4576101008083540402835291602001916110df565b820191906000526020600020905b8154815290600101906020018083116110c257829003601f168201915b50505050509550600780546110f390611882565b80601f016020809104026020016040519081016040528092919081815260200182805461111f90611882565b801561116c5780601f106111415761010080835404028352916020019161116c565b820191906000526020600020905b81548152906001019060200180831161114f57829003601f168201915b505050505094506008805461118090611882565b80601f01602080910402602001604051908101604052809291908181526020018280546111ac90611882565b80156111f95780601f106111ce576101008083540402835291602001916111f9565b820191906000526020600020905b8154815290600101906020018083116111dc57829003601f168201915b5050505050935060025492506003549150600154905090919293949596565b6000808284611227919061173a565b90508381101561126c576040517f08c379a00000000000000000000000000000000000000000000000000000000081526004016112639061168d565b60405180910390fd5b8091505092915050565b82805461128290611882565b90600052602060002090601f0160209004810192826112a457600085556112eb565b82601f106112bd57805160ff19168380011785556112eb565b828001600101855582156112eb579182015b828111156112ea5782518255916020019190600101906112cf565b5b5090506112f891906112fc565b5090565b5b808211156113155760008160009055506001016112fd565b5090565b600061132c611327846116ed565b6116c8565b90508281526020810184848401111561134457600080fd5b61134f848285611840565b509392505050565b60008135905061136681611a67565b92915050565b60008135905061137b81611a7e565b92915050565b600082601f83011261139257600080fd5b81356113a2848260208601611319565b91505092915050565b6000813590506113ba81611a95565b92915050565b6000602082840312156113d257600080fd5b60006113e084828501611357565b91505092915050565b6000806000606084860312156113fe57600080fd5b600084013567ffffffffffffffff81111561141857600080fd5b61142486828701611381565b93505060206114358682870161136c565b9250506040611446868287016113ab565b9150509250925092565b60006020828403121561146257600080fd5b6000611470848285016113ab565b91505092915050565b611482816117d3565b82525050565b611491816117c1565b82525050565b6114a0816117e5565b82525050565b6114af8161182e565b82525050565b60006114c08261171e565b6114ca8185611729565b93506114da81856020860161184f565b6114e381611a19565b840191505092915050565b60006114fb601b83611729565b915061150682611a2a565b602082019050919050565b61151a81611824565b82525050565b60006020820190506115356000830184611488565b92915050565b600060e082019050611550600083018a611488565b818103602083015261156281896114b5565b9050818103604083015261157681886114b5565b9050818103606083015261158a81876114b5565b90506115996080830186611511565b6115a660a0830185611511565b6115b360c0830184611511565b98975050505050505050565b60006060820190506115d46000830186611488565b6115e16020830185611511565b6115ee6040830184611511565b949350505050565b600060208201905061160b60008301846114a6565b92915050565b6000602082019050818103600083015261162b81846114b5565b905092915050565b600060a082019050818103600083015261164d81886114b5565b905061165c6020830187611511565b6116696040830186611479565b6116766060830185611497565b6116836080830184611511565b9695505050505050565b600060208201905081810360008301526116a6816114ee565b9050919050565b60006020820190506116c26000830184611511565b92915050565b60006116d26116e3565b90506116de82826118b4565b919050565b6000604051905090565b600067ffffffffffffffff821115611708576117076119ea565b5b61171182611a19565b9050602081019050919050565b600081519050919050565b600082825260208201905092915050565b600061174582611824565b915061175083611824565b9250827fffffffffffffffffffffffffffffffffffffffffffffffffffffffffffffffff038211156117855761178461192e565b5b828201905092915050565b600061179b82611824565b91506117a683611824565b9250826117b6576117b561195d565b5b828204905092915050565b60006117cc82611804565b9050919050565b60006117de82611804565b9050919050565b60008115159050919050565b60008190506117ff82611a53565b919050565b600073ffffffffffffffffffffffffffffffffffffffff82169050919050565b6000819050919050565b6000611839826117f1565b9050919050565b82818337600083830152505050565b60005b8381101561186d578082015181840152602081019050611852565b8381111561187c576000848401525b50505050565b6000600282049050600182168061189a57607f821691505b602082108114156118ae576118ad6119bb565b5b50919050565b6118bd82611a19565b810181811067ffffffffffffffff821117156118dc576118db6119ea565b5b80604052505050565b60006118f082611824565b91507fffffffffffffffffffffffffffffffffffffffffffffffffffffffffffffffff8214156119235761192261192e565b5b600182019050919050565b7f4e487b7100000000000000000000000000000000000000000000000000000000600052601160045260246000fd5b7f4e487b7100000000000000000000000000000000000000000000000000000000600052601260045260246000fd5b7f4e487b7100000000000000000000000000000000000000000000000000000000600052602160045260246000fd5b7f4e487b7100000000000000000000000000000000000000000000000000000000600052602260045260246000fd5b7f4e487b7100000000000000000000000000000000000000000000000000000000600052604160045260246000fd5b6000601f19601f8301169050919050565b7f536166654d6174683a206164646974696f6e206f766572666c6f770000000000600082015250565b60038110611a6457611a6361198c565b5b50565b611a70816117c1565b8114611a7b57600080fd5b50565b611a87816117d3565b8114611a9257600080fd5b50565b611a9e81611824565b8114611aa957600080fd5b5056fea26469706673582212201ef013f24d9a0134269db06d323342f731426cf8f9407f89d0b1f87364605d8464736f6c63430008010033a264697066735822122096812eb483425918ae509e8e3fbc30a7c9ca89a783ba51f6d013c3f06ab19da964736f6c63430008010033",
  "immutableReferences": {},
  "source": "// SPDX-License-Identifier: MIT\r\npragma solidity >0.8.0;\r\nimport \"../interfaces/OpenZepplin/SafeMath.sol\";\r\nimport \"./Project.sol\";\r\n\r\ncontract FundRaising {\r\n    using SafeMath for uint256;\r\n    // Event that will be emitted whenever a new project is started\r\n    event ProjectStarted(\r\n        address contractAddress,\r\n        address projectStarter,\r\n        string projectTitle,\r\n        string projectDescription,\r\n        string projectImgUrl,\r\n        uint256 durationInDays,\r\n        uint256 amountToRaise,\r\n        uint256 minimumContribution\r\n    );\r\n\r\n    Project[] private projects;\r\n\r\n    //create function to start project\r\n\r\n    /** @dev Function to start a new project.\r\n     * @param title Title of the project to be created\r\n     * @param description Brief description about the project\r\n     * @param durationInDays Project deadline in days\r\n     * @param amountToRaise Project goal in hydro\r\n     * @param minimumContribution minimum amount a contibutor can give\r\n     */\r\n\r\n    function startNewProject(\r\n        string calldata title,\r\n        string calldata description,\r\n        string calldata imgUrl,\r\n        uint256 durationInDays,\r\n        uint256 amountToRaise,\r\n        uint256 minimumContribution\r\n    ) external {\r\n        uint256 deadline = block.timestamp.add(durationInDays.mul(1 days));\r\n        Project newProject = new Project(\r\n            deadline,\r\n            amountToRaise,\r\n            payable(address(msg.sender)),\r\n            title,\r\n            description,\r\n            imgUrl,\r\n            minimumContribution\r\n        );\r\n        projects.push(newProject);\r\n        emit ProjectStarted(\r\n            address(newProject),\r\n            msg.sender,\r\n            title,\r\n            description,\r\n            imgUrl,\r\n            minimumContribution,\r\n            deadline,\r\n            amountToRaise\r\n        );\r\n    }\r\n\r\n    /** @dev Function to get all projects' contract addresses.\r\n     * @return A list of all projects' contract addreses\r\n     */\r\n    function returnAllProjects() external view returns (Project[] memory) {\r\n        return projects;\r\n    }\r\n}",
  "sourcePath": "C:\\Users\\Madeeha Ishaque\\Desktop\\BioPreserve\\contracts\\fundRaising.sol",
  "compiler": {
    "name": "solc",
    "version": "0.8.1+commit.df193b15.Emscripten.clang"
  },
  "schemaVersion": "3.4.16",
  "updatedAt": "2024-05-26T08:11:20.903Z",
  "networkType": "ethereum",
  "devdoc": {
    "kind": "dev",
    "methods": {
      "returnAllProjects()": {
        "details": "Function to get all projects' contract addresses.",
        "returns": {
          "_0": "A list of all projects' contract addreses"
        }
      },
      "startNewProject(string,string,string,uint256,uint256,uint256)": {
        "details": "Function to start a new project.",
        "params": {
          "amountToRaise": "Project goal in hydro",
          "description": "Brief description about the project",
          "durationInDays": "Project deadline in days",
          "minimumContribution": "minimum amount a contibutor can give",
          "title": "Title of the project to be created"
        }
      }
    },
    "version": 1
  },
  "userdoc": {
    "kind": "user",
    "methods": {},
    "version": 1
  }
}