{
  "contractName": "Project",
  "abi": [
    {
      "inputs": [
        {
          "internalType": "uint256",
          "name": "_deadline",
          "type": "uint256"
        },
        {
          "internalType": "uint256",
          "name": "_goal",
          "type": "uint256"
        },
        {
          "internalType": "address payable",
          "name": "projectStarter",
          "type": "address"
        },
        {
          "internalType": "string",
          "name": "projectTitle",
          "type": "string"
        },
        {
          "internalType": "string",
          "name": "projectDescription",
          "type": "string"
        },
        {
          "internalType": "uint256",
          "name": "_minimumContribution",
          "type": "uint256"
        }
      ],
      "stateMutability": "nonpayable",
      "type": "constructor"
    },
    {
      "anonymous": false,
      "inputs": [
        {
          "indexed": false,
          "internalType": "address",
          "name": "recipient",
          "type": "address"
        }
      ],
      "name": "CreatorPaid",
      "type": "event"
    },
    {
      "anonymous": false,
      "inputs": [
        {
          "indexed": false,
          "internalType": "address",
          "name": "contributor",
          "type": "address"
        },
        {
          "indexed": false,
          "internalType": "uint256",
          "name": "amount",
          "type": "uint256"
        },
        {
          "indexed": false,
          "internalType": "uint256",
          "name": "currentTotal",
          "type": "uint256"
        }
      ],
      "name": "FundingReceived",
      "type": "event"
    },
    {
      "inputs": [],
      "name": "completeAt",
      "outputs": [
        {
          "internalType": "uint256",
          "name": "",
          "type": "uint256"
        }
      ],
      "stateMutability": "view",
      "type": "function"
    },
    {
      "inputs": [
        {
          "internalType": "address",
          "name": "",
          "type": "address"
        }
      ],
      "name": "contributions",
      "outputs": [
        {
          "internalType": "uint256",
          "name": "",
          "type": "uint256"
        }
      ],
      "stateMutability": "view",
      "type": "function"
    },
    {
      "inputs": [],
      "name": "creator",
      "outputs": [
        {
          "internalType": "address",
          "name": "",
          "type": "address"
        }
      ],
      "stateMutability": "view",
      "type": "function"
    },
    {
      "inputs": [],
      "name": "deadline",
      "outputs": [
        {
          "internalType": "uint256",
          "name": "",
          "type": "uint256"
        }
      ],
      "stateMutability": "view",
      "type": "function"
    },
    {
      "inputs": [],
      "name": "description",
      "outputs": [
        {
          "internalType": "string",
          "name": "",
          "type": "string"
        }
      ],
      "stateMutability": "view",
      "type": "function"
    },
    {
      "inputs": [],
      "name": "goal",
      "outputs": [
        {
          "internalType": "uint256",
          "name": "",
          "type": "uint256"
        }
      ],
      "stateMutability": "view",
      "type": "function"
    },
    {
      "inputs": [],
      "name": "minimumContribution",
      "outputs": [
        {
          "internalType": "uint256",
          "name": "",
          "type": "uint256"
        }
      ],
      "stateMutability": "view",
      "type": "function"
    },
    {
      "inputs": [],
      "name": "raisedAmount",
      "outputs": [
        {
          "internalType": "uint256",
          "name": "",
          "type": "uint256"
        }
      ],
      "stateMutability": "view",
      "type": "function"
    },
    {
      "inputs": [
        {
          "internalType": "uint256",
          "name": "",
          "type": "uint256"
        }
      ],
      "name": "requests",
      "outputs": [
        {
          "internalType": "string",
          "name": "description",
          "type": "string"
        },
        {
          "internalType": "uint256",
          "name": "value",
          "type": "uint256"
        },
        {
          "internalType": "address payable",
          "name": "recipient",
          "type": "address"
        },
        {
          "internalType": "bool",
          "name": "completed",
          "type": "bool"
        },
        {
          "internalType": "uint256",
          "name": "numberOfVoters",
          "type": "uint256"
        }
      ],
      "stateMutability": "view",
      "type": "function"
    },
    {
      "inputs": [],
      "name": "state",
      "outputs": [
        {
          "internalType": "enum Project.State",
          "name": "",
          "type": "uint8"
        }
      ],
      "stateMutability": "view",
      "type": "function"
    },
    {
      "inputs": [],
      "name": "title",
      "outputs": [
        {
          "internalType": "string",
          "name": "",
          "type": "string"
        }
      ],
      "stateMutability": "view",
      "type": "function"
    },
    {
      "inputs": [],
      "name": "totalContributors",
      "outputs": [
        {
          "internalType": "uint256",
          "name": "",
          "type": "uint256"
        }
      ],
      "stateMutability": "view",
      "type": "function"
    },
    {
      "inputs": [],
      "name": "contribute",
      "outputs": [],
      "stateMutability": "payable",
      "type": "function"
    },
    {
      "inputs": [],
      "name": "checkIfFundingCompleteOrExpired",
      "outputs": [],
      "stateMutability": "nonpayable",
      "type": "function"
    },
    {
      "inputs": [],
      "name": "getBalance",
      "outputs": [
        {
          "internalType": "uint256",
          "name": "",
          "type": "uint256"
        }
      ],
      "stateMutability": "view",
      "type": "function"
    },
    {
      "inputs": [],
      "name": "getRefund",
      "outputs": [],
      "stateMutability": "nonpayable",
      "type": "function"
    },
    {
      "inputs": [],
      "name": "getDetails",
      "outputs": [
        {
          "internalType": "address",
          "name": "projectStarter",
          "type": "address"
        },
        {
          "internalType": "string",
          "name": "projectTitle",
          "type": "string"
        },
        {
          "internalType": "string",
          "name": "projectDescription",
          "type": "string"
        },
        {
          "internalType": "uint256",
          "name": "projectDeadline",
          "type": "uint256"
        },
        {
          "internalType": "uint256",
          "name": "currentAmount",
          "type": "uint256"
        },
        {
          "internalType": "uint256",
          "name": "goalAmount",
          "type": "uint256"
        }
      ],
      "stateMutability": "view",
      "type": "function"
    },
    {
      "inputs": [
        {
          "internalType": "string",
          "name": "_description",
          "type": "string"
        },
        {
          "internalType": "address payable",
          "name": "_recipient",
          "type": "address"
        },
        {
          "internalType": "uint256",
          "name": "_value",
          "type": "uint256"
        }
      ],
      "name": "createSpendingRequest",
      "outputs": [],
      "stateMutability": "nonpayable",
      "type": "function"
    },
    {
      "inputs": [
        {
          "internalType": "uint256",
          "name": "index",
          "type": "uint256"
        }
      ],
      "name": "voteForRequest",
      "outputs": [],
      "stateMutability": "nonpayable",
      "type": "function"
    },
    {
      "inputs": [
        {
          "internalType": "uint256",
          "name": "index",
          "type": "uint256"
        }
      ],
      "name": "payOut",
      "outputs": [],
      "stateMutability": "nonpayable",
      "type": "function"
    }
  ],
  "bytecode": "0x608060405260006003556008805460ff191690553480156200002057600080fd5b506040516200129438038062001294833981016040819052620000439162000209565b600080546001600160a01b0319166001600160a01b038616179055825162000073906006906020860190620000b0565b50815162000089906007906020850190620000b0565b5060018590556005819055620000a08643620002ac565b6002555062000324945050505050565b828054620000be90620002d1565b90600052602060002090601f016020900481019282620000e257600085556200012d565b82601f10620000fd57805160ff19168380011785556200012d565b828001600101855582156200012d579182015b828111156200012d57825182559160200191906001019062000110565b506200013b9291506200013f565b5090565b5b808211156200013b576000815560010162000140565b600082601f83011262000167578081fd5b81516001600160401b03808211156200018457620001846200030e565b604051601f8301601f19908116603f01168101908282118183101715620001af57620001af6200030e565b81604052838152602092508683858801011115620001cb578485fd5b8491505b83821015620001ee5785820183015181830184015290820190620001cf565b83821115620001ff57848385830101525b9695505050505050565b60008060008060008060c0878903121562000222578182fd5b86516020880151604089015191975095506001600160a01b038116811462000248578283fd5b60608801519094506001600160401b038082111562000265578384fd5b620002738a838b0162000156565b9450608089015191508082111562000289578384fd5b506200029889828a0162000156565b92505060a087015190509295509295509295565b60008219821115620002cc57634e487b7160e01b81526011600452602481fd5b500190565b600281046001821680620002e657607f821691505b602082108114156200030857634e487b7160e01b600052602260045260246000fd5b50919050565b634e487b7160e01b600052604160045260246000fd5b610f6080620003346000396000f3fe60806040526004361061011f5760003560e01c806386f32586116100a0578063d01ca19211610064578063d01ca192146102d0578063d7bb99ba146102f0578063da333ca6146102f8578063f251fc8c14610318578063fbbf93a01461032d5761011f565b806386f325861461025a578063937e09b11461026f578063b2d5ae4414610284578063c19d93fb14610299578063c59ee1dc146102bb5761011f565b80634a79d50c116100e75780634a79d50c146101bb5780634c4cea5a146101dd578063700127ef146101f25780637284e4161461021457806381d12c58146102295761011f565b806302d05d3f1461012457806312065fe01461014f57806329dcb0cf14610171578063401938831461018657806342e94c901461019b575b600080fd5b34801561013057600080fd5b50610139610354565b6040516101469190610d16565b60405180910390f35b34801561015b57600080fd5b50610164610363565b6040516101469190610e52565b34801561017d57600080fd5b50610164610367565b34801561019257600080fd5b5061016461036d565b3480156101a757600080fd5b506101646101b6366004610bd1565b610373565b3480156101c757600080fd5b506101d0610385565b6040516101469190610dc8565b3480156101e957600080fd5b50610164610413565b3480156101fe57600080fd5b5061021261020d366004610cb3565b610419565b005b34801561022057600080fd5b506101d06104b7565b34801561023557600080fd5b50610249610244366004610cb3565b6104c4565b604051610146959493929190610ddb565b34801561026657600080fd5b506102126105a3565b34801561027b57600080fd5b506101646105de565b34801561029057600080fd5b506102126105e4565b3480156102a557600080fd5b506102ae61066a565b6040516101469190610da0565b3480156102c757600080fd5b50610164610673565b3480156102dc57600080fd5b506102126102eb366004610bed565b610679565b610212610780565b34801561030457600080fd5b50610212610313366004610cb3565b610877565b34801561032457600080fd5b50610164610998565b34801561033957600080fd5b5061034261099e565b60405161014696959493929190610d2a565b6000546001600160a01b031681565b4790565b60025481565b60015481565b60096020526000908152604090205481565b6006805461039290610e93565b80601f01602080910402602001604051908101604052809291908181526020018280546103be90610e93565b801561040b5780601f106103e05761010080835404028352916020019161040b565b820191906000526020600020905b8154815290600101906020018083116103ee57829003601f168201915b505050505081565b60045481565b6000600c828154811061043c57634e487b7160e01b600052603260045260246000fd5b6000918252602080832033845260099091526040909220546004909102909101915061046757600080fd5b336000908152600b602052604090205460ff161561048457600080fd5b336000908152600b60205260408120805460ff19166001179055600382018054916104ae83610ece565b91905055505050565b6007805461039290610e93565b600c81815481106104d457600080fd5b90600052602060002090600402016000915090508060000180546104f790610e93565b80601f016020809104026020016040519081016040528092919081815260200182805461052390610e93565b80156105705780601f1061054557610100808354040283529160200191610570565b820191906000526020600020905b81548152906001019060200180831161055357829003601f168201915b5050505060018301546002840154600390940154929390926001600160a01b0382169250600160a01b90910460ff169085565b600154600354106105c0576008805460ff191660021790556105d8565b6002544311156105d8576008805460ff191660011790555b43600455565b60055481565b60025443116105f257600080fd5b6001546003541061060257600080fd5b3360009081526009602052604090205461061b57600080fd5b33600081815260096020526040808220549051839282156108fc02929190818181858888f19350505050158015610656573d6000803e3d6000fd5b505033600090815260096020526040812055565b60085460ff1681565b60035481565b6000546001600160a01b0316331461069057600080fd5b60015460035410156106a157600080fd5b6040805160a08101825284815260208082018490526001600160a01b0385169282019290925260006060820181905260808201819052600c80546001810182559152815180519293849360049093027fdf6966c971051c3d54ec59162606531493a51404a002842f56009d7e5cf4a8c701926107209284920190610b28565b5060208201516001820155604082015160028201805460608501511515600160a01b0260ff60a01b196001600160a01b039094166001600160a01b0319909216919091179290921691909117905560809091015160039091015550505050565b60008060085460ff1660028111156107a857634e487b7160e01b600052602160045260246000fd5b146107b257600080fd5b60055434116107c057600080fd5b60025443106107ce57600080fd5b336000908152600960205260409020546107f257600a546107f0906001610ae9565b505b3360009081526009602052604081208054349290610811908490610e5b565b92505081905550346003600082825461082a9190610e5b565b90915550506003546040517f5cdc4ab8d637538ead6cc1904d4160343656c8c82bd266635cfd31ac008fffe0916108649133913491610d7f565b60405180910390a16108746105a3565b50565b6000546001600160a01b0316331461088e57600080fd5b6000600c82815481106108b157634e487b7160e01b600052603260045260246000fd5b600091825260209091206004909102016002810154909150600160a01b900460ff16156108dd57600080fd5b6002600a546108ec9190610e73565b8160030154116108fb57600080fd5b600281015460018201546040516001600160a01b039092169181156108fc0291906000818181858888f1935050505015801561093b573d6000803e3d6000fd5b506000546040517f2f256415efc8561af8db667cb242964b19be7380f379ccdafaa0e54a6f6b706991610979916001600160a01b0390911690610d16565b60405180910390a1600201805460ff60a01b1916600160a01b17905550565b600a5481565b60008054600680546001600160a01b0390921692606092839282918291906109c590610e93565b80601f01602080910402602001604051908101604052809291908181526020018280546109f190610e93565b8015610a3e5780601f10610a1357610100808354040283529160200191610a3e565b820191906000526020600020905b815481529060010190602001808311610a2157829003601f168201915b5050505050945060078054610a5290610e93565b80601f0160208091040260200160405190810160405280929190818152602001828054610a7e90610e93565b8015610acb5780601f10610aa057610100808354040283529160200191610acb565b820191906000526020600020905b815481529060010190602001808311610aae57829003601f168201915b50505050509350600254925060035491506001549050909192939495565b600080610af68385610e5b565b905083811015610b215760405162461bcd60e51b8152600401610b1890610e1b565b60405180910390fd5b9392505050565b828054610b3490610e93565b90600052602060002090601f016020900481019282610b565760008555610b9c565b82601f10610b6f57805160ff1916838001178555610b9c565b82800160010185558215610b9c579182015b82811115610b9c578251825591602001919060010190610b81565b50610ba8929150610bac565b5090565b5b80821115610ba85760008155600101610bad565b8035610bcc81610f15565b919050565b600060208284031215610be2578081fd5b8135610b2181610f15565b600080600060608486031215610c01578182fd5b833567ffffffffffffffff80821115610c18578384fd5b818601915086601f830112610c2b578384fd5b813581811115610c3d57610c3d610eff565b604051601f8201601f19908116603f01168101908382118183101715610c6557610c65610eff565b81604052828152896020848701011115610c7d578687fd5b8260208601602083013786602084830101528097505050505050610ca360208501610bc1565b9150604084013590509250925092565b600060208284031215610cc4578081fd5b5035919050565b60008151808452815b81811015610cf057602081850181015186830182015201610cd4565b81811115610d015782602083870101525b50601f01601f19169290920160200192915050565b6001600160a01b0391909116815260200190565b6001600160a01b038716815260c060208201819052600090610d4e90830188610ccb565b8281036040840152610d608188610ccb565b60608401969096525050608081019290925260a0909101529392505050565b6001600160a01b039390931683526020830191909152604082015260600190565b6020810160038310610dc257634e487b7160e01b600052602160045260246000fd5b91905290565b600060208252610b216020830184610ccb565b600060a08252610dee60a0830188610ccb565b6020830196909652506001600160a01b039390931660408401529015156060830152608090910152919050565b6020808252601b908201527f536166654d6174683a206164646974696f6e206f766572666c6f770000000000604082015260600190565b90815260200190565b60008219821115610e6e57610e6e610ee9565b500190565b600082610e8e57634e487b7160e01b81526012600452602481fd5b500490565b600281046001821680610ea757607f821691505b60208210811415610ec857634e487b7160e01b600052602260045260246000fd5b50919050565b6000600019821415610ee257610ee2610ee9565b5060010190565b634e487b7160e01b600052601160045260246000fd5b634e487b7160e01b600052604160045260246000fd5b6001600160a01b038116811461087457600080fdfea2646970667358221220682fc63321949ebc9c747367f21af80f981ff3363e133b1deb286f81fbd6631a64736f6c63430008010033",
  "immutableReferences": {},
  "source": "// SPDX-License-Identifier: MIT\r\npragma solidity >0.8.0;\r\nimport \"../interfaces/OpenZepplin/SafeMath.sol\";\r\n\r\ncontract Project {\r\n    using SafeMath for uint256;\r\n\r\n    //state variables\r\n    address public creator;\r\n    uint256 public goal;\r\n    uint256 public deadline;\r\n    uint256 public raisedAmount = 0;\r\n    uint256 public completeAt;\r\n    uint256 public minimumContribution;\r\n    string public title;\r\n    string public description;\r\n    State public state = State.Fundraising; // initialize on create\r\n    mapping(address => uint256) public contributions;\r\n    uint256 public totalContributors;\r\n\r\n    // Event that will be emitted whenever funding will be received\r\n    event FundingReceived(\r\n        address contributor,\r\n        uint256 amount,\r\n        uint256 currentTotal\r\n    );\r\n    enum State {Fundraising, Expired, Successful}\r\n    // Event that will be emitted whenever the project starter has received the funds\r\n    event CreatorPaid(address recipient);\r\n\r\n    // Modifier to check if the function caller is the project creator\r\n    modifier isCreator() {\r\n        require(msg.sender == creator);\r\n        _;\r\n    }\r\n    modifier goalReached() {\r\n        require(raisedAmount >= goal);\r\n        _;\r\n    }\r\n\r\n    // Modifier to check current state\r\n    modifier inState(State _state) {\r\n        require(state == _state);\r\n        _;\r\n    }\r\n    struct Request {\r\n        string description;\r\n        uint256 value;\r\n        address payable recipient;\r\n        bool completed;\r\n        uint256 numberOfVoters;\r\n    }\r\n    mapping(address => bool) voters;\r\n    Request[] public requests;\r\n\r\n    constructor(\r\n        uint256 _deadline,\r\n        uint256 _goal,\r\n        address payable projectStarter,\r\n        string memory projectTitle,\r\n        string memory projectDescription,\r\n        uint256 _minimumContribution\r\n    ) public {\r\n        creator = projectStarter;\r\n        title = projectTitle;\r\n        description = projectDescription;\r\n        goal = _goal;\r\n        minimumContribution = _minimumContribution;\r\n        deadline = block.number + _deadline;\r\n    }\r\n\r\n    /** @dev Function to fund a certain project.\r\n     */\r\n    function contribute() external payable inState(State.Fundraising) {\r\n        require(msg.value > minimumContribution);\r\n        require(block.number < deadline);\r\n        if (contributions[msg.sender] == 0) {\r\n            totalContributors.add(1);\r\n        }\r\n        contributions[msg.sender] += msg.value;\r\n        raisedAmount += msg.value;\r\n        emit FundingReceived(msg.sender, msg.value, raisedAmount);\r\n        checkIfFundingCompleteOrExpired();\r\n    }\r\n\r\n    /** @dev Function to change the project state depending on conditions.\r\n     */\r\n    function checkIfFundingCompleteOrExpired() public {\r\n        if (raisedAmount >= goal) {\r\n            state = State.Successful;\r\n        } else if (block.number > deadline) {\r\n            state = State.Expired;\r\n        }\r\n        completeAt = block.number;\r\n    }\r\n\r\n    /** @dev Function to get balance .\r\n     */\r\n    function getBalance() public view returns (uint256) {\r\n        return address(this).balance;\r\n    }\r\n\r\n    /** @dev Function to retrieve donated amount when a project expires and when a goal is not met.\r\n     */\r\n    function getRefund() public {\r\n        require(block.number > deadline);\r\n        require(raisedAmount < goal);\r\n        require(contributions[msg.sender] > 0);\r\n\r\n        address payable sender = payable(msg.sender);\r\n        sender.transfer(contributions[msg.sender]);\r\n        contributions[msg.sender] = 0;\r\n    }\r\n\r\n    /** @dev Function to get specific information about the project.\r\n     \r\n     */\r\n    function getDetails()\r\n        public\r\n        view\r\n        returns (\r\n            address projectStarter,\r\n            string memory projectTitle,\r\n            string memory projectDescription,\r\n            uint256 projectDeadline,\r\n            uint256 currentAmount,\r\n            uint256 goalAmount\r\n        )\r\n    {\r\n        projectStarter = creator;\r\n        projectTitle = title;\r\n        projectDescription = description;\r\n        projectDeadline = deadline;\r\n        currentAmount = raisedAmount;\r\n        goalAmount = goal;\r\n    }\r\n\r\n    /** @dev Function to create a spending request by project creator\r\n     */\r\n    function createSpendingRequest(\r\n        string memory _description,\r\n        address payable _recipient,\r\n        uint256 _value\r\n    ) public isCreator goalReached {\r\n        Request memory newRequest = Request({\r\n            description: _description,\r\n            value: _value,\r\n            recipient: _recipient,\r\n            numberOfVoters: 0,\r\n            completed: false\r\n        });\r\n\r\n        requests.push(newRequest);\r\n    }\r\n\r\n    /** @dev Function to vote for a spending request\r\n     */\r\n    function voteForRequest(uint256 index) public {\r\n        Request storage thisRequest = requests[index];\r\n        require(contributions[msg.sender] > 0);\r\n        require(voters[msg.sender] == false);\r\n        voters[msg.sender] = true;\r\n        thisRequest.numberOfVoters++;\r\n    }\r\n\r\n    /** @dev Function to payout for a spending request\r\n     */\r\n    function payOut(uint256 index) public isCreator {\r\n        Request storage thisRequest = requests[index];\r\n        require(thisRequest.completed == false);\r\n        require(thisRequest.numberOfVoters > totalContributors / 2); //more than 50% voted\r\n        thisRequest.recipient.transfer(thisRequest.value);\r\n        emit CreatorPaid(creator);\r\n        thisRequest.completed = true;\r\n    }\r\n}",
  "sourcePath": "C:\\Users\\Madeeha Ishaque\\Documents\\EcoFin\\frontend\\contracts\\Project.sol",
  "compiler": {
    "name": "solc",
    "version": "0.8.1+commit.df193b15.Emscripten.clang"
  },
  "schemaVersion": "3.4.16",
  "updatedAt": "2024-05-09T18:56:24.607Z",
  "devdoc": {
    "kind": "dev",
    "methods": {
      "checkIfFundingCompleteOrExpired()": {
        "details": "Function to change the project state depending on conditions."
      },
      "contribute()": {
        "details": "Function to fund a certain project."
      },
      "createSpendingRequest(string,address,uint256)": {
        "details": "Function to create a spending request by project creator"
      },
      "getBalance()": {
        "details": "Function to get balance ."
      },
      "getDetails()": {
        "details": "Function to get specific information about the project."
      },
      "getRefund()": {
        "details": "Function to retrieve donated amount when a project expires and when a goal is not met."
      },
      "payOut(uint256)": {
        "details": "Function to payout for a spending request"
      },
      "voteForRequest(uint256)": {
        "details": "Function to vote for a spending request"
      }
    },
    "version": 1
  },
  "userdoc": {
    "kind": "user",
    "methods": {},
    "version": 1
  }
}